:200000000C94BA030C94D7030C94D7030C94542D0C94D7030C94D7030C94D7030C94D70386
:200020000C94D7030C94D7030C9487250C9443250C9484260C94D7030C94D7030C94D703C0
:200040000C94D7030C94D7030C94D7030C94D7030C94D7030C9460260C94D7030C94D70324
:200060000C94D7030C94D7030C94D7030C94D7030C94D7030C94D7030C94D7030C94D703B0
:200080000C94D7030C94D7030C94D7030C94D7030C94D7030C94D7030C94D7030C94D70390
:2000A0000C94D7030C94D7030C94D70305010902A10185020901A10005091901290815007F
:2000C00025019508750181020501093009311581257F95027508810609381581257F950105
:2000E00075088106050C0A38021581257F950175088106C0C005010980A101850319012A56
:20010000B700150126B700950175108100C0050C0901A101850419012AA002150126A002CF
:20012000950175108100C00660FF0961A1010962150026FF009520750881020963150026F1
:20014000FF00952075089102C005010906A101050719E029E71500250195087501810295E9
:2001600001750881010507190029FF150026FF0095067508810005081901290515002501CF
:20018000950575019102950175039101C0000000000000000000000000000000000000005C
:2001A00000000000000000000000000000000000007E0F00D4FFFFFFC700000078000000A2
:2001C00000000000002A2B280000000000000000000000000000000029000000002C1E34FB
:2001E00020212224342627252E362D3738271E1F202122232425263333362E37381F040518
:20020000060708090A0B0C0D0E0F101112131415161718191A1B1C1D2F3130232D3504051C
:20022000060708090A0B0C0D0E0F101112131415161718191A1B1C1D2F3130354C1E0F05D7
:2002400000047F3F1F643214643214783C1E1E140A05000101010101010101010202020245
:200260000202020202030303030303030304040404040404050505050506060606060707FB
:2002800007070708080808090909090A0A0A0B0B0B0C0C0C0D0D0D0E0E0E0F0F0F101011F3
:2002A0001111121213131414151516161717181819191A1A1B1B1C1D1D1E1E1F2020212226
:2002C00022232424252626272829292A2B2C2D2D2E2F30313232333435363738393A3B3C57
:2002E0003D3E3F404142434445464748494A4C4D4E4F50515354555658595A5B5D5E5F6143
:200300006264656668696B6C6D6F7072737577787A7B7D7E8082838587888A8C8E8F9193AF
:200320009596989A9C9EA0A2A3A5A7A9ABADAFB1B3B5B7BABCBEC0C2C4C6C9CBCDCFD1D460
:20034000D6D8DBDDDFE2E4E7E9EBEEF0F3F5F8FAFDFFFFAA7F55402223252628292A2C2D02
:200360002F3032333536383A3B3D3E4042434547494A4C4E5051535557595A5C5E60626475
:200380006668696B6D6F71737577797B7D7F81838587898A8C8E90929496989A9C9E9FA1EA
:2003A000A3A5A7A8AAACAEAFB1B3B4B6B8B9BBBCBEBFC1C2C3C5C6C7C9CACBCCCDCED0D1C2
:2003C000D2D2D3D4D5D6D7D7D8D9D9DADADBDBDBDCDCDCDCDCDDDDDDDDDCDCDCDCDCDBDBE8
:2003E000DBDADAD9D9D8D7D7D6D5D4D3D2D2D1D0CECDCCCBCAC9C7C6C5C3C2C1BFBEBCBB4E
:20040000B9B8B6B4B3B1AFAEACAAA8A7A5A3A19F9E9C9A98969492908E8C8A89878583811E
:200420007F7D7B79777573716F6D6B6968666462605E5C5A5957555351504E4C4A49474592
:200440004342403E3D3B3A3836353332302F2D2C2A29282625232229001E001F0020002175
:20046000002200000000002B0014001A0008001500170000000000E00004001600070009C3
:20048000000A0000000000E1001D001B00060019000500000000000000E200E3002C002CF8
:2004A00000000000000000230024002500260027002D002E0031001C0018000C0012001392
:2004C000002F00300035000B000D000E000F003300340028002A00110010003600370038D4
:2004E00000E500215200002C002C000000E700E60000000000000062523A003B003C003DDD
:20050000003E00000000000100010001000100010001000000000001000100010001000192
:200520000001000000000001000100010001000100010000000000000001000100010001B0
:20054000000000000000003F004000410042004300440045004900010001004600470048AD
:2005600000520001004C00010001004A004B0050004F0001002A00010001004D004E00518D
:2005800000010001000000010001000000780001000000000000006252000000000000002A
:2005A00000000000000000000000000000000000000000000000000000000000000000003B
:2005C00000000000000000000000000000000000000000000000000000000000000000001B
:2005E0000000000000000000000000000000000000000000000000000000000000000000FB
:200600000000000000007C2078217800000000000000000000000028782778247823782691
:2006200078257800000000000000000000780000000000000000000000000000000000002D
:2006400000000000000000000000000000000000000000000000000000000000000000009A
:2006600000000000000000000000000000000000000000000000000000000000000000007A
:2006800000000000000000000000000000000000000000000000000000000000000000005A
:2006A0000000000000007C00000000000000000000000000000000000000000000000000BE
:2006C000000000000000000000000000000000000000000000000009025B00030100A0C848
:2006E000090400000103010100092111010001224400070581030800010904010002030098
:20070000000009211101000122220007058203200001070503032000010904020001030060
:200720000000092111010001227B0007058403200001120100020000000865320A00070066
:20074000010200010A03370073006B00620000001E03530061006C006900630079006C001F
:20076000690063005F00410063006900640000000403090411241FBECFEFDAE0DEBFCDBF16
:2007800023E0ACECB1E001C01D92A035B207E1F711E0A0E0B1E0ECEBF1E602C005900D92B1
:2007A000AC3CB107D9F70E94AB260C9475300C940000482F209120039091E70257E02913A9
:2007C00002C080E0089530E0529FF001539FF00D1124E851FD4F8181681306C08081481320
:2007E00003C085818111EECF2F5F3F4F2770E7CFFC01AC014B5F5F4F8FEF91E32191822729
:2008000028E030E087FF09C0880F892721503109C9F7E417F50791F70895880FF7CFE8ED71
:20082000F0E080818E7F80831092E2001092DA001092E100A0EEB0E08C9181608C93808118
:200840008F77808319BCA7EDB0E08C918E7F8C9380818F7E80831092D00208952091E40096
:200860003091E50095E6A9012091EC00822F817020FF06C08091E80080FF06C080E008954E
:200880002091E80022FD1AC08091DD02882389F0853089F08091EB0085FD0FC02091E400A2
:2008A0003091E50042175307F9F29150E1F684E0089582E0089583E0089581E0089580912D
:2008C000DF0287FF13C08091E80082FF06C08091E8008B778093E80004C08091DD02811162
:2008E000F2CF08958091DD028823D9F38091E80080FFF8CF8091E8008E77ECCF982F909351
:20090000E900242F762F50E0891731F07091EC002091ED005091F00021FD07C09F5F9730FF
:2009200071F78093E90081E008953091EB003E7F3093EB003091ED003D7F3093ED00309163
:20094000EB0031603093EB007093EC002093ED005093F0002091EE0027FDE0CF80E008959C
:20096000B0E0A0E0E6EBF4E00C947A2EC8EDD0E088818F7E8883E7EDF0E08081816080836B
:2009800084E082BF81E08093D00288818E7F888302EE10E0F80110821092DA0081EEC82EFF
:2009A000D12CF601108288818F77888388818068888388818F7D888319BC1092DD02109283
:2009C000DE021092DC021092DB0290EEE92EF12CF70180818B7F808388818160888342E069
:2009E00060E080E00E947E04F60180818E7F8083F801808181608083808188608083F70169
:200A000080818E7F8083888180618883CDB7DEB7E8E00C94962EFC018091E5029091E6028D
:200A200086179707A0F06115710529F49091E8009E779093E80090E06115710551F4911176
:200A400008C08091E80082FF34C080E00895BC01F2CF8091DD028823C1F18530C1F1809120
:200A6000E80083FD30C08091E80082FDEACF8091E80080FFE1CF8091F3002091F200382FB7
:200A80006115710519F02830310558F091E02830310509F090E02091E8002E772093E8004A
:200AA000CBCF81918093F100615071092F5F3F4FE7CF8091DD02882341F0853041F08091C6
:200AC000E80083FFBECF81E0089582E0089583E00895089508958091D202089587E797E77A
:200AE000909301088093000888E19AE00FB6F894A895809360000FBE90936000FFCF9C0110
:200B00004FB7F8948091CC029091CD02A091CE02B091CF024FBF821B930B08952FB7F89409
:200B20006091CC027091CD028091CE029091CF022FBF08952FB7F8948091CC029091CD0287
:200B4000A091CE02B091CF022FBF0895E0EDF1E09191891303C0DF0111971C9291E0E63D0E
:200B6000F907B1F70895A0EDB1E0EFEF90E02D91821751F0EF3F19F4211101C0E92F9F5FE8
:200B80009630A9F7EF3F09F408950E2E000CFF0BE253FE4F82830895A3E0B0E0E2EDF5E0FA
:200BA0000C94802E2091C9023091CA0228173907A1F09093CA028093C902E091C702F09146
:200BC000C802309751F024E029839B838A830084F185E02DCE01019609952396E2E00C9442
:200BE0009C2EA3E0B0E0E7EFF5E00C94802E2091C5023091C60228173907A1F09093C60223
:200C00008093C502E091C702F091C802309751F023E029839B838A830084F185E02DCE01BD
:200C2000019609952396E2E00C949C2E8091C302882359F0E091C702F091C802309729F06B
:200C40000190F081E02D0995089580E008950E949A059C019091BF028091C002982B21F0E6
:200C60003093BC022093BB029091C1028091C202982B21F03093BA022093B902E091C702CF
:200C8000F091C802309749F082E08093BD020680F781E02D8DEB92E0099508958091B802DA
:200CA00080FF0CC06091470170E075956795759567956115710549F1862F089581FF06C096
:200CC0006091470170E075956795F3CF6091470182FD0BC09091B7029923A1F060914601E1
:200CE00080914701961738F0682F70E06038710500F38FE70895899FC001112470E00E94BB
:200D0000D52EF4CF61E070E0D7CF81E008958091B80280FF0DC06091450170E0660F771F2F
:200D20006038710570F56115710569F1862F089581FF07C06091450184E0689FB0011124D9
:200D4000EFCF82FF04C06091450188E0F6CF8091B602882399F02091440160914501821769
:200D6000A0F7869FC001112433E0880F991F3A95E1F7622F70E00E94D52ED2CF68E070E0F9
:200D8000D5CF8FE7089581E00895282F35EB2303C001112497FF04C080589109892F0895EA
:200DA00080589F4FFBCFFA01811101C0FB0109950895E2E7F2E01182828184608283089567
:200DC000609140018091480380FF0CC070E080913F0123E0829FC00111248C5D9C4F0E9409
:200DE000110F0895809141019091420123E0829FF0011124EC5DFC4F891740F711821082A5
:200E000012828F5F3396F8CF9091480390FF0EC0909141012091420133E0939FF001112435
:200E2000EC5DFC4F921718F00E94E00608958183608342839F5F3396F5CFE8E4F3E0808171
:200E40008E7F80830E94D906E2E7F2E08281816082830E94E006089580914803982F9C7F1A
:200E600061F4837084608093480380914B03853B18F084EB80934B0308958C3AB0F38370F8
:200E8000886AF1CFAF92BF92DF92EF92FF920F931F93CF93DF93182F062FE901453B08F085
:200EA00044EBE42FF0E0EE5AFD4F011110C0E4915E2F4E2F4983E8835A83DF91CF911F9197
:200EC0000F91FF90EF90DF90BF90AF900895202F30E04491D42EE42EF12C56E0159FC001BA
:200EE0001124EFEFF0E0BF010E94C12E812F90E0880F991F55E5569FD001579FB00D112467
:200F00008A1B9B0B982F990F890F5F01A21AB30AAE9CD001AF9CB00DBE9CB00D11245B2FAD
:200F2000089F80011124012F11275F01A01AB10AAE9C8001AF9C100DBE9C100D11245F01D8
:200F4000A81AB108A29EC001A39E900DB29E900D1124892F9927E81BF90BEE9DC001EF9DBE
:200F6000900DFE9D900D1124E92F62307105A1F050F46115710509F49DCF6130710581F0A5
:200F8000EB2F512F97CF6430710569F080F06630710509F48FCFF4CFE42F4B2F592F8ACFE6
:200FA000E42F412F87CFEB2F542F492F83CF4B2F5D2DE12F7FCFA3E0B0E0E1EEF7E00C9436
:200FC000802E9091480390FF10C09E012F5F3F4F0E9442078B8199812A8120932503909323
:200FE0002403809326030E94E0062396E2E00C949C2E0F931F93CF93DF93EC0110E000E03C
:20100000909143019017110609F06CF40E94E0068C8190E00196817099278C83DF91CF9128
:201020001F910F91089520914101A801420F511D9A01220F331F240F351F2C5D3C4F4C81E2
:2010400060914A038091490396959017110651F04CF0442349F040914B030E9442070F5F77
:201060001F4FCECF4423B9F340E0F7CFA3E0B0E0ECE3F8E00C947E2E8C01809177028111BD
:201080000AC09E012F5F3F4F44EB6FEF0E9442078A8180937702F8016481613069F08091E3
:2010A000770240E0662361F040E0623011F44091770280E060E004C06091770240E080E06E
:2010C0000E940407F801848190E0019663E070E00E94D52E84832396E4E00C949A2EB0E0AA
:2010E000A0E0E5E7F8E00C94762EEC014C81042F10E09801D8010E9466309B01AC010E9416
:2011000031304B015C01E0E2F0E0E01BF10BA5E5B0E0AC019B010E9431306B017C019F014D
:20112000DF010E94F62E9B01AC010E943C309B01AC01280D391D4A1D5B1DC701B6010E94DE
:201140004430F22E822F90E039E23F1520F143E0249F9001112435952795122F109500E062
:2011600085E5E82EEF1880914301081718F10E94E0069C8181E0992319F0903219F48FEF53
:2011800080933E0180913E01890F8C83CDB7DEB7ECE00C94922E25E530E0B901681B790BE6
:2011A0009B01220F331F260F371F37FFD4CF2F5F3F4FD1CF8E2D01FD8F2D20914101622FF7
:2011C000600F7727771F9B01220F331F260F371F2C5D3C4F412F60914A030E9442070F5FA7
:2011E000C2CFEF92FF920F931F93CF93DF93EC018C81811109C081E08C831092760292E0D3
:2012000090933D0180933C01809141019091420123E0829FF0011124EC5DFC4F891758F19F
:2012200010E003E060914301161758F10E94E00680913C0120917602280F209376029091AE
:201240003D01980F90933D01191654F4022E000C330B409143014150550B2417350734F0B6
:20126000819580933C01813009F41C82CDB7DEB7E6E00C94982E1182108212828F5F339607
:20128000CDCFE12EF12C70E0C7010E94D52E20914101820F482F50E020917602022E000C39
:2012A000330BE216F306BCF020913D01022E000C330B2E153F057CF0809F900111242C5D89
:2012C0003C4F40914B0360914A03809149030E9442071F5FA7CFFA01EE0FFF1FE40FF51FCD
:2012E000EC5DFC4F118210821282F3CFB0E0A0E0ECE7F9E00C94762EEC018A81BB24BA94BA
:2013000080FD02C0BB24B394A09043018C81811109C081E0B81220C08FEF8A0D80937502E2
:2013200081E08C83F12CE12C4CE0942EEA14B8F00E94E0068091750291E0B91257C081118A
:2013400050C0809143018150809375021C82CDB7DEB7ECE00C94922E10927502E1CF009190
:2013600041010E0D1F2D111DC801880F991F080F191F0C5D1C4FF80111821082128234E095
:20138000C32ED12C812C80917502880D8D302CF1692D0E94B32E892F082E000C990B8E1561
:2013A0009F0591F480914B038C9DA0018D9D500D11245595479555954795980160914A03BC
:2013C000809149030E9442078B0CF1E0CF1AD108D1F68FEFE81AF80AA9CF87FFDDCF8A0D11
:2013E000DBCF815080937502BC82B1CF90E001966091430170E00E94D52E809375028C8360
:20140000A6CFEF92FF921F93CF93DF93EC0110E0EE24EA94F12C60914301161770F00E94D1
:20142000E0069A818C8190FF27C08F5F8C83DF91CF911F91FF90EF90089520914101422F9C
:20144000410F5527551FCA019A01220F331F280F391F2C5D3C4F70E0C7010E94D52E962F3E
:201460008C8140914B0360914A03199F800D11240E9442071F5FCFCF8150D8CFA3E0B0E0F6
:20148000E4E4FAE00C94802E9091480390FF0AC09E012F5F3F4F0E9442074B8169818A8130
:2014A0000E9404072396E2E00C949C2ECF93DF93EC01E8E4F3E0438162818C810E943E0A9C
:2014C0008C818F5F8C83DF91CF910895CF93DF93EC01EC81F0E0E95AFC4F4491E8E4F3E095
:2014E000628181810E943E0A8C818F5F8C83DF91CF91089580E00895F894E82FE295EF7030
:20150000F0E031A1282F2F7081E090E001C0880F2A95EAF7982F9095932391A392A1892BAD
:2015200082A3789408950F931F938091C302882329F00E948E051F910F9108950E948E0598
:2015400000914002109141022091420230914302600F711F821F931FEECF8091C302882349
:2015600019F00E949A0508950E94930ACB0108959091510292FF10C041E0282F24712430A6
:2015800009F040E031E0282F2871283009F030E0431711F02CE0822793FF10C041E0282FE6
:2015A0002471243109F040E031E0282F2871283109F030E0431711F02CE0822730915202A0
:2015C00030FF10C051E0282F2171213009F050E041E0282F2871283009F040E0541711F08A
:2015E00029E0822731FF10C041E0282F2171213109F040E031E0282F2871283109F030E061
:20160000431711F029E0822794FD877E089582389105B9F1B0F48133910509F47DC048F42C
:201620008932910509F46DC08A32910509F47BC008958533910509F45FC08933910509F152
:201640000895833E9105D9F138F4803E910529F1823E910579F10895863E9105D9F1873EEC
:20166000910509F43EC0843E910541F52091520221FF24C08091510284FD19C087EE90E09F
:20168000089520915102237009F05AC02091520223FF14C089E290E008952091510220FD6F
:2016A00038C03091520230FF09C024FF43C090E080E008952091510222FDF7CF089520915B
:2016C000510222FD3AC03091520230FD39C024FFF5CFEDCF2091510223FFF0CF24FDE7CF04
:2016E000CDCF2091510223FD2EC03091520231FFEECF84EE90E008952091510225FFDECFE6
:20170000C9CF2091510225FD21C02091520223FFD5CF89E390E0D2CF2091510226FFCECF1C
:201720008AE290E008952091510226FFC7CF81E390E0089583EE90E0089582EE90E0089505
:2017400080EE90E0089586EE90E0089585E390E008951F93CF93DF930E94070BEC01C1151B
:2017600080E5D807F0F5C11580E4D80708F09CC0C03ED10520F5CD3CD10508F082C0C83ACF
:20178000D10578F4C53AD10508F073C0C130D10519F1209709F1C430D105F0F4D0E0C0E087
:2017A0001BC0C33CD105D0F7C85AD0E0CC0FDD1FC45BDE4F0990D881C02DD4640DC0C11503
:2017C00080E2D80708F0D1C0C11581E0D80708F05AC0C83ED10510F7CE01DF91CF911F91E5
:2017E0000895C03682E5D80718F5C03482E5D80708F06BC0C03282E5D80708F05FC0C11581
:2018000082E5D80708F497C02C2F2695269580E2289F900111248C2F8370C1E0D0E002C0AE
:20182000CC0FDD1F8A95E2F7C22BD32BDD68D4CFC03A82E5D80760F4C03882E5D80708F438
:2018400059C0CF71D0E0DC2FCC27C46FD06AC4CFC03C82E5D80708F462C0C03E82E5D807DD
:2018600008F09CCFDC2FCC27CC27DF71C06FD06AB3CFC55AD0E0C75BDE4FC881D0E0D0648E
:20188000ABCFD065A9CF8D2F0E94B80A182FCE0199270E94070BC12FD0E0DC2FCC27CC27E6
:2018A000DF71C82BD92B98CFCE0199270E94070BCC27DF70C82BD92BD06A8ECFCF71D0E077
:2018C000DC2FCC27C16FD06A87CF2C2F26952695277080E2289F900111248C2F8370C1E0A4
:2018E000D0E002C0CC0FDD1F8A95E2F7C22BD32BDC6872CF2C2F26952695277080E2289FA6
:20190000900111248C2F8370C1E0D0E002C0CC0FDD1F8A95E2F7C22BD32BDA685DCF8C2F5D
:201920008F710E94B80AC82FD0E0DC2FCC27CC27DF71D06251CF8C2F8F710E94B80A55E0B5
:20194000D695C7955A95E1F7CF70D0E0DC2FCC27282F30E084FF05C044E0220F331F4A95D7
:20196000E1F7C22BD32BD06937CF8D2F8F710E94B80A182FCE0199270E94070BC12FD0E01B
:20198000DC2FCC27CC27DF71C82BD92BD2CF809590910B02982390930B020895809120036F
:2019A0009091E702981301C008958F5F8770FACF9A3080F5883070F548E0949F90011124E9
:2019C000820F932F911D682F677023E0969587952A95E1F7FC01EE0FFF1FE80FF91FE55259
:2019E000FE4F50E040E080E0219130E0062E02C0369527950A94E2F721703327042E01C056
:201A0000220F0A94EAF7822B4F5F5F4F4330510559F7089580E008959A3098F5883088F5CE
:201A200048E0949F90011124820F932F911D282F277041E001C0440F2A95EAF723E0969593
:201A400087952A95E1F7FC01EE0FFF1FE80FF91FE552FE4F90E080E070E05191DF0111979E
:201A60009B01082E02C0369527950A94E2F7217021952527242325272C930196833091050F
:201A800061F7089580930C0208954091BF029091C1022091C202662309F469C0942B922B7D
:201AA0002091C002922B31F098E09093B60291E09093B7028D3C41F40E94870681958093DF
:201AC000C0020E94270608958E3C19F40E948706F6CF8F3C31F40E94870681958093BF0204
:201AE000F0CF803D19F40E948706F8CF893D29F40E944E068093C102E4CF8A3D21F40E9487
:201B00004E068195F7CF8B3D31F40E944E0681958093C202D6CF8C3D19F40E944E06F8CF8D
:201B20009FE2980F983070F4815D990B21E030E001C0220F8A95EAF78091BE02822B80933B
:201B4000BE02BFCF8D3D31F48091B80281608093B802B7CF8E3D21F48091B8028260F7CFF6
:201B60008F3D09F0AECF8091B8028460F0CF8D3C59F48091C00287FF0DC01092C0024111C3
:201B80000BC01092B60208C08E3C81F48091C00218169CF3442381F08091C1029091C202F8
:201BA000892B09F08ECF1092B7028BCF8F3C49F447FFF0CF1092BF028091C0028111ECCFD6
:201BC000E0CF803D19F41416ACF3E4CF893D29F4191604F71092C102DDCF8A3D19F497FF88
:201BE000D9CFF8CF8B3D29F427FFD4CF1092C202D1CF8C3D19F41216CCF3CCCF9FE2980F42
:201C0000983090F4815D990B21E030E0B90102C0660F771F8A95E2F7CB0180959091BE02A4
:201C200089238093BE02B6CF8D3D31F48091B8028E7F8093B802AECF8E3D21F48091B802E4
:201C40008D7FF7CF8F3D09F0A5CF8091B8028B7FF0CF982F92959F7011F0892F94E0282F64
:201C60002695269511F09E5F822F869509F09F5F892F0895CF93C82F0E94290E8230B9F04B
:201C80008330C9F040E060E0813099F44FEF6FEF8AEA0E94DB0781E0809341018CE0809371
:201CA00042018BE0809343018C2FCF9108954FEF6FEF80E0EECF4FEF6FEF8FEBEACF0E943D
:201CC0003A0E8093500208959091500221E030E0F90101C0EE0F8A95EAF7D90102C0AA0F29
:201CE000BB1F6A95E2F7EA2B01C0220F4A95EAF7892F8E23E81305C0292B822F0E945F0E2E
:201D0000089520952923F9CF21E030E001C0220F8A95EAF720958091500282230E945F0E8E
:201D20000895909100028095892380930002282F277069F4891759F09091520292FF07C00C
:201D40008695869586950E94840E10920002089521E030E001C0220F8A95EAF78091500257
:201D6000822B0E945F0E08950F931F93CF93DF938B01EA019091DD02943061F58093E90055
:201D80008FEF9091E800815095FD06C095ED9A95F1F700008111F5CF8091E80085FF1AC04D
:201DA0000E942E04811111C08091E80085FD06C08091E8008E778093E800F2CFF8018191E6
:201DC0008F018093F100219779F78091E8008E778093E800DF91CF911F910F91089543E06E
:201DE00050E0BC0184E00E94B40E089546E050E0BC0184E00E94B40E0895CF93DF93EC0158
:201E000048E050E0BC0181E00E94B40E88E0FE01A3EDB2E001900D928A95E1F7DF91CF9168
:201E20000895539A4BB1477F5BB15860EFB7F8949B01220F331F260F371F280F391F2817E8
:201E4000390741F4EFBF8FE594E00197F1F700C000000895DC016D91CD0178E05BB9000085
:201E600000C067FF4BB9660F000000C000C000C04BB900C07A9591F7E2CFB0E0A0E0E3E4A0
:201E8000FFE00C94782E7C015B016A0180913F0201E010E08A3010F40AE010E0C1E0D0E0CD
:201EA000B501C701F6010995811104C021960C171D072CF4CDB7DEB7EAE00C94942ECC9FEB
:201EC0009001CD9F300D300D112490E080E045E34A95F1F70000019682179307C1F7E0CF66
:201EE000CF93C82F6FEF811163E285E290E00E94DE2F6FEFC11160E186E290E00E94DE2FD6
:201F00006FEFC11162E287E290E00E94DE2FCF910895CF93DF93C9EAD2E060E0CE010E94DE
:201F2000DE2F2196C11584E0D807B9F7DF91CF9108951F93CF93DF93122F8430E0F46A30BE
:201F4000D0F44830C0F490E1699FE001112450E0440F551FC40FD51F90EA899FC00DD11DE7
:201F60001124632FCE0189960E94DE2F612FCE018A960E94DE2FDF91CF911F910895AF9271
:201F8000BF92CF92DF92EF92FF921F93CF93DF9387E5C82E84E0D82ED0E07601C0E014C01F
:201FA000F50125913491412F6C2F8D2F0E94990F82E0A80EB11C1F5F183091F780E1E80E15
:201FC000F11CCF5FCA3019F0570110E0E9CFDF5F80EAC80ED11CD43001F7DF91CF911F91DC
:201FE000FF90EF90DF90CF90BF90AF90089580E00E94700F60E088E290E00E94DE2F0E94EE
:20200000BF0F0E94890F81E00E94700F089585E290E00E94BA2F833289F486E290E00E948B
:20202000BA2F803159F487E290E00E94BA2F91E0823209F090E0892F8170089580E0FCCF56
:202040000F931F93CF93DF93843030F56A3020F5483010F520E1629F8001112450E0440F18
:20206000551F040F151F30EA839F000D111D1124C80189960E94BA2FC82FD0E0DC2FCC27E1
:20208000C8018A960E94BA2F9E01282BC901DF91CF911F910F91089590E080E0F8CF462F47
:2020A0007A3040F4683030F4843020F4672F0E942010089590E080E00895CF92DF92FF92E9
:2020C0000F931F93CF93DF936C010091500280910C02082BC3E0D0E010E0FC2EC8010C2EC6
:2020E00002C0959587950A94E2F780FD0CC02197A0F7F12C8F2DDF91CF911F910F91FF9041
:20210000DF90CF900895B6018C2F0E944F100E94A90B019761F3EECFCF93DF93EC010E947F
:202120005D10BE010E944F100E94A90BDF91CF910895FC0124812223C1F0808191810E9462
:202140008C1092959F70963091F058F4925F9F70923058F4803F19F030F4883E30F481E0D5
:2021600008959A5FF4CF843FD1F380E00895883EB0F3813FD1F7F3CFA6E0B0E0E2ECF0E11A
:202180000C947F2E49835A8349815A819923A1F0222391F0CA010E945D10182F682F8981CF
:2021A0009A810E940C0D69817A81812F0E944F102696E3E00C949B2ECA010E94D80C182F33
:2021C000F2CFB0E0A0E0E7EEF0E10C94722EFC016280448081E08483E7E5F3E07490E6EDC7
:2021E000F3E0E491C0914B03C695C158D0E0CC0FDD1FCD2FDD27812C75E0972EAA24AA942A
:20220000B12C55245A94E719EE2EF12C80914301881638F00E94E006CDB7DEB7E0E10C9424
:202220008E2EC82CD12C82E0861568F09C9CF0019D9CF00D1124E858FD4F8091490380831C
:2022400080914A038183411023C09C9CF0019D9CF00D1124E858FD4F1382128220914101AC
:20226000C601820F911D9C01220F331F280F391F2C5D3C4F9C9CF0019D9CF00D1124E858C1
:20228000FD4F4281618180810E9442078394BECF9C9C80019D9C100D112408581D4FF801B4
:2022A00083818823F1F081508383859DC0011124648170E00E94C12EFB01FF27E95AFC4F29
:2022C0008491E82FE719E59DC0011124B7010E94C12E80914B03689FB0011124F8017283D7
:2022E000BDCF0E94872FB5010E94D52E8C179D070CF0B4CFF2E0F61598F40E94872FB50162
:202300000E94D52EF80180830E94872F20914A032695622F70E00E94D52E280FF8012183B1
:202320009C9CF0019D9CF00D1124E858FD4F128280914B03893C58F088EC9C9CF0019D9CA7
:20234000F00D1124E858FD4F8483838387CF8431A0F784E1F2CF609148036695669570E068
:202360004BE050E081E391E00E94972F892B19F481E0809373020E94AD0A90936D0280931D
:202380006C02809174028460809374020895B0E0A0E0EDECF1E10C94762E49015A016B012E
:2023A0007C010E942C078401A4016A2D7B2D88E090E00E94F02F94014A2D5B2DB601C701B6
:2023C00000E20E94202F622F84E290E00E94DE2FCDB7DEB7ECE00C94922EA3E0B0E0E3EFEA
:2023E000F1E10C94792E082FE62EF42EC22E9091480390FF41C020914903281308C080915A
:202400004A03861304C080914B03841729F080917402826080937402E92FE695E695AE2F22
:20242000B0E0AF56BE4F8C91809372029C7F943039F59E012F5F3F4F4F2D6E2D802F0E9426
:2024400042074B8169818A810E94040700934903E0924A03F0924B03CC2071F0209148030E
:2024600060914C0370914D03302FA70180914E0390914F030E94C7112396E9E00C94952E90
:20248000823019F4F0904B03E1CF8630A1F1893091F18931D9F6E9516E2F6170B62EE695EC
:2024A000F0E0EE5AFC4F1491D12C60914301D61618F00E94E006CACFD19EC001112470E018
:2024C0000E94C12E802FB11014C0860F20914101622F6D0D7727771F9B01220F331F260F0C
:2024E000371F2C5D3C4F4F2D6E2D0E944207D394DCCF861BEBCF022FA9CFE8E4F3E04381F7
:2025000021E1421B08F440E021E0628181810E94ED110895E8E4F3E0438121E1420F08F46B
:202520004FEF21E0628181810E94ED110895E8E4F3E0628121E1621B08F460E021E0438138
:2025400081810E94ED110895E8E4F3E0628121E1620F08F46FEF21E0438181810E94ED1186
:202560000895E8E4F3E0818121E0438162818A500E94ED110895E8E4F3E0818121E04381F8
:202580006281865F0E94ED11089580914C03882319F0815080934C032091480330914903E6
:2025A00040914A0350914B0360914C0370914D0380914E0390914F030E94C7110895809140
:2025C0004C03833018F48F5F80934C03209148033091490340914A0350914B0360914C0307
:2025E00070914D0380914E0390914F030E94C71108959091480390FF3AC09370811138C01C
:2026000094609093480380917402816080937402662391F0209148033091490340914A0336
:2026200050914B0360914C0370914D0380914E0390914F030E94C711609148036695669559
:2026400070E04BE050E081E391E00E94972F892BB9F00E94D90681E080936F0220E04091FE
:202660004B0360914A03809149030E94ED1108958B3210F0986AC5CF880F880F982BC1CF60
:202680000E94AB11E8CF8091480386958695815009F48AE261E00E94F91208958091480372
:2026A000869586958F5F8B3208F081E061E00E94F91208959091480390FF09C0969596953B
:2026C000981728F0961718F40E944E13089561E00E94F91208959091520292FB222720F9EB
:2026E000281779F080FB92F990935202609151027091520284E090E00E94FC2F82E00E9477
:20270000910E0895A4E0B0E0E8E8F3E10C947F2E409122025091230260912402709125023E
:202720002FB7F8948091CC029091CD02A091CE02B091CF022FBF841B950BA60BB70B11E0B4
:2027400084369105A105B10570F10E94930A6E5F7F4F8F4F9F4F69837A838B839C8380919F
:202760001501909116018A5D9D4F4091140150E04530510510F044E050E0BE016F5F7F4FA8
:202780000E94B12F82E090E00E94FA2D182F882351F00E948E056093220270932302809362
:2027A000240290932502812F2496E3E00C949B2EABE0B0E0EEEDF3E10C94802E88E0E8E4C7
:2027C000F3E0DE01119601900D928A95E1F78091720290917302A091740289879A87AB8754
:2027E0002B8540913B0250913C0260913D0270913E023FB7F8948091CC029091CD02A09109
:20280000CE02B091CF023FBF841B950BA60BB70B84369105A105B10510F4222319F1809116
:202820001D0190911E018A5D9D4F40911C0150E04C30510510F04BE050E0BE016F5F7F4FC1
:202840000E94B12F83E090E00E94FA2D882369F00E948E0560933B0270933C0280933D025E
:2028600090933E021092740281E02B96E2E00C949C2EEF92FF921F93CF93DF9300D000D057
:2028800000D0CDB7DEB77B0190E080E00E94FA2D182F882309F480C04091070150E04115AC
:2028A000510511F041E050E060910801709109016A5D7D4FCE0106960E94B12F40911E02FA
:2028C00050911F0260912002709121022FB7F8948091CC029091CD02A091CE02B091CF026B
:2028E0002FBF841B950BA60BB70B84369105A105B10540F487E292E00E94F8039E81891721
:2029000009F44AC081E090E00E94FA2D811116C010E085E0E9E1F2E0D70101900D928A9596
:20292000E1F7812F26960FB6F894DEBF0FBECDBFDF91CF911F91FF90EF90089540910F0100
:2029400050E04630510510F045E050E060911001709111016A5D7D4FCE0101960E94B12F96
:2029600087E292E00E94F8039E818913D1CF0E948E0560931E0270931F02809320029093C0
:20298000210285E0FE013196A9E1B2E001900D928A95E1F711E0BDCF85E0E7E2F2E0DE014A
:2029A000119601900D928A95E1F71111EACFB1CFA5E1B0E0EEEDF4E10C94752E8E01045FF3
:2029C0001F4F8AE0F80111928A95E9F784E8C82E81E0D82EF12CE12CAA24A394B12C21E9A5
:2029E000822E21E0922EF60181916F018F3F09F442C0F894E82FE295EF70F0E021A18F7016
:202A0000A50102C0440F551F8A95E2F7CA01922F982B91A392A18095892382A3789400C027
:202A2000E9E8F1E0712C31E021912F3F09F493C0A22FA295AF70B0E090968C9190E02F70CD
:202A400002C0959587952A95E2F780FD84C0832F782A330F8E169F0639F7F6013197808146
:202A60008F3F11F00E947C0A50EA5A95F1F7F801EE0DFF1D70828FEFE81AF80A95E0E91656
:202A8000F10409F0B0CF4AE050E0B80184E492E00E94A42F009741F02AE0F801A4E4B2E082
:202AA00001900D922A95E1F700914F0210E00E591D4F892B09F451C081E0809311020E94BF
:202AC0009A059093100280930F02D12CC090C302FE0131967F0185E0CC2009F494C0119261
:202AE0008A95E9F780913F028A3008F05AC049E354E1B701C8010E943D0F882309F472C00F
:202B000042E853E1B701C8010E943D0F882309F469C048ED53E1B701C8010E943D0F882394
:202B200009F460C010923F0280914E0290E045E050E0B7018E599D4F0E94A42F21E02093BB
:202B40001802892B09F042C0C12C8C2D8D296596EDE00C94912E80E07BCFD0901102DD200F
:202B600009F4B3CF80910F02909110020E947F05059708F4AACF45E050E064E472E0C80192
:202B80000E94A42F892B59F085E0E4E4F2E0D80101900D928A95E1F71092110297CFD12CAC
:202BA000FBCF80911202909113020E947F05843F914008F09CCF80911802882329F285E07D
:202BC000F70111928A95E9F710921802A0914E02B0E0AE59BD4F85E0F70101900D928A95CF
:202BE000E1F7B3CF80913F028F3F31F08F5F80933F028A3008F498CF0E949A059093130262
:202C000080931202D8CFF801A7E2B2E001900D928A95E1F787E292E00E94F80380932602F8
:202C200080902C0290902D02A0902E02B0902F028091140290911502A0911602B091170234
:202C400088169906AA06BB06B1F08092140290921502A0921602B09217020E948E05861A4A
:202C6000970AA80AB90A8092400290924102A0924202B09243028BE0E0E3F2E0D70101901F
:202C80000D928A95E1F78091300286958695F0903102E0903202B0903302009139021091EC
:202CA0003A0210923A02112309F44FCF10FF0BC0998190FF1CC09091480391609093480381
:202CC00060E00E94F91211FF06C020E04B2D6E2D8F2D0E94ED1112FF04C0002359F00E94DF
:202CE000AB1113FF32CF81E080936F022ECF0E941D07E9CF0E94D906F4CF20910B02809192
:202D00000202282B80910102882381F0282B30E080ED91E0FC014191CF0141113F5FF1E08B
:202D2000863D9F07B9F73111109201022093CE0148E050E063E072E08EEC91E00E94A42FC4
:202D4000892BA9F088E0EEECF1E0A3E0B2E001900D928A95E1F7E091C702F091C80230978B
:202D600031F00280F381E02D8EEC91E009950895CF9310920B02C6E0E0EDF1E0DF018C2F19
:202D80001D928A95E9F790E080E00E94F10590E080E00E94CC05109202020E947D16EDEB27
:202DA000F2E0DF011D92CA95E9F71092B6021092B7021092B8020E942706CF910895AAE20A
:202DC000B0E0E5EEF6E10C947F2E8FED92E02091F100DC012D93CD01B2E0873E9B07B9F7C8
:202DE0008091E002833009F472C0B8F4813009F449C0823009F4B3C08091E80083FF8BC2B1
:202E00008091DF029091E0029A3008F084C2E92FF0E0E958FF4C0C94E92E8A3009F48EC085
:202E20008B3009F471C0893039F78091DF02813219F78091E3029091E402009711F00297DD
:202E4000D9F68091E800877F8093E8008091E80082FF38C09091F3008091F200029731F462
:202E60008091F100813011F0863021F48091F1008093D2028091E8008B778093E8000E9452
:202E80005F04BACF8091DF02813A09F0B5CF8091E800877F8093E8008091E3029091E40225
:202EA000892B61F468E083ED92E070E00E940B058091E8008B778093E8009ECF60E090E0CA
:202EC00080E0F3CF8091DD028111C0CF95CF8091DF02813A09F090CF8091E3029091E40259
:202EE000892B09F089CF8091E800877F8093E8008091E80080FFFCCF809148018093F10032
:202F00008091E8008E77B9CF8091DF02813209F073CF8091E3029091E402892B09F06CCF66
:202F20008091E800877F8093E8000E945F048091E102809348010E94B8165ECF8091DF02B3
:202F4000813209F059CF8091E800877F8093E8000E945F048091E2028093D1024DCF809196
:202F6000DF02813A09F048CF8091E800877F8093E8008091E80080FFFCCF8091D102BECFF7
:202F8000803899F0823809F0C6C18091E3028F70873008F0C0C18093E9008091EB0085FB19
:202FA000882780F91092E90006C08091DB029091DC02911182609091E800977F9093E800FD
:202FC0008093F1001092F1008091E8008E779FC1882309F48DC1823009F09DC18091E10209
:202FE000811190C18091E3028F702FEF280F263008F091C18093E9002091EB0020FF82C10A
:20300000933031F48091EB0080628093EB007AC19091EB0090619093EB0021E030E001C0D4
:20302000220F8A95EAF72093EA001092EA008091EB008860EACF81116EC11091E1021F77BE
:203040008091E3008078812B8093E3008091E800877F8093E8000E945F048091E80080FF6B
:20306000FCCF8091E30080688093E30082E0111183E08093DD024FC18058823008F04BC13C
:203080002091E1023091E2022C3DE3E03E07A1F583E08A838AE289834FB7F894DE011396EE
:2030A00020E03EE051E2E32FF0E050935700E49120FF03C0E295EF703F5FEF708E2F90E04C
:2030C000EA30C0F0C7968D939D932F5F243159F74FBF8091E800877F8093E8006AE270E0A2
:2030E000CE0101960E940B058091E8008B778093E80011C1C096E7CF8091E3029091E402E7
:20310000432F55274330510509F44AC078F54130510509F47AC08BE590E0E7EDF6E042308A
:20312000510509F0F8C02091E800277F2093E8002091E5023091E6028217930708F49C01A1
:2031400040E02115310509F065C0411163C08091E80082FDC9CF8091DD02882329F28530D5
:2031600019F28091E80083FFF2CFBECF4132510509F43CC04232510509F0CDC08330910520
:2031800008F0C9C0FC01EE0FFF1FE154FE4F0190F081E02D84549E4FDC018C9190E01AC0FC
:2031A000332721303105D1F02115310561F02230310509F0B0C0E4E4F7E0E4918E2F90E07E
:2031C000E4E4F7E007C0E0E7F7E0E4918E2F90E0E0E7F7E0009709F49EC0A5CFE0E5F7E0A9
:2031E000E4918E2F90E0E0E5F7E0F4CF8330910508F091C0880F991FFC01EB53FE4F0190D4
:20320000F081E02D89E090E08ECF82E190E0E2E3F7E089CF8091DD02882309F465CF8530B2
:2032200009F462CF8091E80083FD5ECF8091E80082FD8DCF8091E80080FF83CF9091F30008
:203240008091F2002115310519F08830910550F041E0089709F040E08091E8008E7780937E
:20326000E8006FCF44914093F1003196215031090196E8CF803809F04EC08091E800877F11
:203280008093E8008091DE028093F1009DCE811142C01091E1021230F0F58091E800877F95
:2032A0008093E8001093DE020E945F04112311F084E005C08091E30087FDFACF81E0809378
:2032C000DD0242E061EC81E00E947E0442E261EC84E00E947E0442E261EC82E00E947E042B
:2032E00042E260EC83E00E947E048091DD0213C08091E102813079F481E0933009F080E085
:203300008093DC021092E9008091E800877F8093E8000E945F048091E80083FF0AC08091DC
:20332000E800877F8093E8008091EB0080628093EB00AA96E3E00C949B2E0E94B8162FEFCE
:2033400084E39CE0215080409040E1F700C0000088E19AE00FB6F894A895809360000FBE40
:2033600090936000FFCF882321F00E94C70C0E947D160895882339F090910B02982B909311
:203380000B020E947D160895882309F456C0823879F40E94160681FF50C089E30E94B30555
:2033A0000E947D1689E30E94A6050E947D160895833859F40E94160680FF3FC083E50E94FF
:2033C000B3050E947D1683E5EECF843859F40E94160682FF32C087E40E94B3050E947D16A7
:2033E00087E4E1CF9CEF980F913AE8F290E2980F983050F4877091E001C0990F8A95EAF7E5
:20340000892F0E94C70CD1CF9BE5980F933028F490E080E00E94F105089598E5980F9B31E4
:2034200028F490E080E00E94CC05089593E3980F933118F460E00E94450D0895A8E0B0E0BA
:20344000E4E2FAE10C94802E66EE7EEF90E080E00E94FC2F60E082E090E00E94DE2F81E0FD
:2034600080930C0261E083E090E00E94DE2F60E074E184E090E00E94FC2F60E086E090E01C
:203480000E94DE2F60E087E090E00E94DE2F40E050E0BA0188E090E00E94F02F60E084E26D
:2034A00090E00E94DE2F60E087E190E00E94DE2F60E08CE090E00E94DE2F60E08DE090E03E
:2034C0000E94DE2F19821A821B821C821D821E821F82188648E050E068E170E0CE010196F6
:2034E0000E94CE2F40E050E0BA0180E290E00E94F02F80E00E94700F0E94F70F40E050E016
:20350000BA018FE090E00E94F02F40E050E0BA0183E190E00E94F02F2896E2E00C949C2EC6
:203520008B3109F46FC040F58B3071F078F4863009F451C020F4853059F180E0089587305B
:2035400009F452C08830C9F781E00895803109F467C068F48E3089F79091B502892F8B7FDD
:2035600092FF84608093B50282FD56C0EDCF863159F3893149F3E1CF8A3251F1B0F48732B7
:2035800009F120F48E31C8F28D5156C08932A9F60E94B8162FEF84E39CE0215080409040E4
:2035A000E1F700C000000E946E05833440F48A3308F041C0853331F0883331F2BECF8334C2
:2035C00009F0BBCF81E00E94420D0E94B816BCCF0E941E1AB9CF8091B502807F8093B50228
:2035E00081E08093B40208959091B502892F8E7F90FF81608093B50280FDA6CF817F809328
:20360000B502A2CF9091B502892F8D7F91FF82608093B50281FF98CF8091B5028160EFCF5C
:203620009091B502892F877F93FF88608093B50283FDF2CF89CF895391E001C0990F8A9542
:20364000EAF7892FC0CFCF93C82F8823C9F08238C9F40E94160681FD13C089E30E94B30539
:203660000E947D162FEF87EE93E0215080409040E1F700C0000089E30E94A6050E947D1688
:20368000CF9108958338A1F40E94160680FDF8CF83E50E94B3050E947D162FEF81EE94E0E3
:2036A000215080409040E1F700C0000083E5E4CF8438A1F40E94160682FDE2CF87E40E940A
:2036C000B3050E947D162FEF81EE94E0215080409040E1F700C0000087E4CECF8CEF8C0F45
:2036E000813A08F0BFC08091B4028130F1F0882391F08230A9F11092B402E0EDF1E08191BF
:20370000C81709F4E4C021E0E63DF207C1F78C2F0E94B305B3CF80910B02823271F78C2FC8
:203720000E94901A8111ACCFE8CF80910B028232B1F3C43171F038F4CB3049F0C03161F00B
:2037400080E08170EFCFC93221F0C833C9F781E0F8CF1092B402F4CF82E08093B402F7CF5F
:20376000C93209F453C080F5C43109F44FC0B0F4C73009F085CF81E080932F0184E18093C4
:2037800030018AE0809345018EE18093440188E08093470188E28093460172CF82EE8C0F9B
:2037A0008A3008F06DCFCD51C093DA01C33009F448C0C0F5C13009F441C080E391E0C2306D
:2037C000C1F11092DA015CCFC03509F443C0C0F48AE0CF3409F054CFE091D801F091D901B8
:2037E000309709F44DCF2081082E000C990B820F911D8F3F910591F18CF18FEF808340CF30
:20380000C13551F181E0C23539F33ACF8091DA01882309F435CF1092DA011092D9011092B0
:20382000D8012ECFC53099F078F086E491E0C63041F69093D9018093D80122CF8FE291E008
:20384000F8CF85E491E0F5CF84E491E0F2CF87E491E0EFCF86EFC0CF8FEFBECF97FFCECF8D
:2038600010820ECF80E28C0F883068F4C77021E030E001C0220FCA95EAF780910B02822B83
:2038800080930B02FBCEEBE5EC0FE33040F4F0E0E75BFE4F808190E00E94F105F1CEE8E539
:2038A000EC0FEB3150F4F0E0EE0FFF1FE45BFE4F808191810E94CC05E3CE83E38C0F83314A
:2038C00008F0DECE61E08C2F0E94450DD9CE8C2F0E94A6050E947D161ACF1F93CF93DF9301
:2038E000182FEB010E94231B209739F4812F0E94C419DF91CF911F9108958FE99FE00197F6
:20390000F1F700C000002197EFCF0F931F93CF93DF93C62FD42F022FFC0185818823A9F0F1
:20392000609323030E949A059093220380932103C77081E001C0880FCA95EAF70E94BA1909
:20394000DF91CF911F910F91089580912303681334C080912103909122030E947F05883C9F
:20396000910558F510E21D0FCD17B9F080E28C0F883040F4C77081E001C0880FCA95EAF7A0
:203980000E94B319183048F481E09D2F977001C0880F9A95EAF70E94BA1970E060E0802FE5
:2039A0000E946D1C183060F6D77081E001C0880FDA95EAF70E94B319C3CFC77081E001C095
:2039C000880FCA95EAF7F6CFA8E0B0E0EAEEFCE10C94722E8C01DC0114968C9114978823B7
:2039E00009F4BEC021E04C9111965C91119712966C91129713967C91139715969C910E940A
:203A0000BC107C01F8018581882309F448C1C70197578038910508F0A4C5FFE0FE1508F45A
:203A20008FC08FEF93E00E94BA2F811189C069EAA62E62E0B62EE1104DC0FE01339686E067
:203A4000DF011D928A95E9F75AE0452E7501BFEFEB1AFB0AC5010E94BA2F89831A82882359
:203A600009F46EC0813009F07FC06501E2E0CE0ED11CC7010E94BA2F8A83882309F460C019
:203A80009FEF980F9330A0F5F3E0AF0EB11CC6010E94BA2F8B83882309F452C01C82DE01A5
:203AA00011967D01F7012081222381F2213009F09DC091818281913009F058C0F2E0EF0E33
:203AC000F11C70E060E0893311F460E570E00E946D1C53C0A11424E0B20691F1C5010E945A
:203AE000BA2F811101C0EA943FEFA31AB30AA3CF56018430A1F642E0E42EF12C56012FEF8A
:203B0000A21AB20AC6010E94BA2FE1E0F0E0EC0FFD1FEE0DFF1D8083882391F08C3741F4F5
:203B2000E2E0F0E0EC0FFD1FEE0DFF1D1082B7CF3FEFE31AF30A650187E0E816F104F1F6DE
:203B400080910002877061F0D80115968C91882339F08091520282FF03C082E00E94910E49
:203B60002896E0E10C948E2E570199CF923049F422E0E20EF11C0E94231B9FEFE91AF90A38
:203B800091CF933031F432E0E30EF11C0E94C419F4CF943021F08FEFE81AF80AEECF92E005
:203BA000E90EF11C30E020E0B7016F5F7F4FD70111964C918053990B8A30910560F02115F4
:203BC0003105D9F2EFE9FFE03197F1F700C0000021503109F4CF429EF001439EF00D11246B
:203BE0009C012E0F3F1F842F7B01DECFE22FF0E0E354FE4F5490822F86958695869590E0F6
:203C0000FC01E355FE4F64902770712C022E02C0759467940A94E2F7F1E06F227724FC0193
:203C2000E356FE4F8490912C022E02C0959487940A94E2F731E083229924FC01E357FE4F89
:203C4000C490D12C02C0D594C7942A95E2F781E0C822DD246114710419F081EE0E94231B67
:203C60008114910419F086EE0E94231B70E060E0852D0E946D1C8114910419F086EE0E9407
:203C8000C4196114710419F081EE0E94C419C114D10409F472CF70E060E08CE218CFF701A1
:203CA000E851FC47E730F10508F047C4EF57FF4C0C94E92E26E241EE61EEC8010E94851C9E
:203CC0003FCF27E245EE65EEF8CF26E241EE60EEF4CF27E245EE64EEF0CF26E241EE62EE64
:203CE000ECCF27E245EE66EEE8CF28E241E0EBCF8091510281608093510295C08091520278
:203D00008860809352028FC0809151028260F3CF809151028460EFCF809151028860EBCFF1
:203D2000809152028160EDCF809152028260E9CF809151028061DFCF809151028062DBCF9F
:203D4000809151028064D7CF0E94B816809151028068D1CF809151028C60CDCF80915202C8
:203D60008360CFCF809151028E7FC5CF80915202877FC7CF809151028D7FBDCF809151025C
:203D80008B7FB9CF80915102877FB5CF809152028E7FB7CF809152028D7FB3CF8091510254
:203DA0008F7EA9CF809151028F7DA5CF809151028F7BA1CF0E94B816809151028F779BCF78
:203DC00080915102837F97CF809152028C7F99CF8091510282FB992790F921E0922790FBD0
:203DE00082F990FB83F987CF80915202982F909591708E7F892B90FB81F983CF909151020D
:203E0000892F8F7B96FF806476CF0E94B81690915102892F97FB87F980586DCF61E08EE0B1
:203E200090E00E94DE2F609151027091520284E090E00E94FC2F0E94B81682CE60E0EFCF6B
:203E400090915102892F8F7E94FF806154CF90915102892F8E7F90FF81604DCF9091520258
:203E6000892F877F93FF88604CCF85E361C38091D601811104C089E20E94A6055BC385E3E7
:203E8000FBCFA7E7EA16ACE7FA0609F025C381E00E94A80E43E062E081E00E94640E50CEA5
:203EA0008091480380FF1EC0282F2E7F209348033091490340914A0350914B0360914C03AD
:203EC00070914D0380914E0390914F030E94C7110E94D906809174028160809374020E942E
:203EE000E0062ECE81608093480361E0869586950E94F91225CE43E453E16EE473E10E94E7
:203F0000D3061ECE4EE453E163E473E1F8CF41EB52E16BEB72E1F3CF4BEB52E161EB72E142
:203F2000EECF47E952E164EA72E1E9CF44EA52E167E972E1E4CF4DE752E16AE872E1DFCF97
:203F40004AE852E16DE772E1DACF45EC52E16FED72E1D5CF4FED52E165EC72E1D0CF61E002
:203F600081E0C6CF65E082E00E945A13E9CD68E086E0FACF6EE089E0F7CF64E18FE0F4CF74
:203F800067E185E1F1CF61E088E1B2CF62E289E1EBCF61E083E2ACCF6AE285E2E5CFB7E7FA
:203FA000EB16BCE7FB0609F45AC0E8E7EE16ECE7FE0609F45AC0F8018581E080F180882309
:203FC00009F487C0C7010E945D10D82E682FC7010E940C0DB7018D2D0E944F100E94A90BDD
:203FE0007C01882ED8011596AC90159716969C9092943FE0932280910002877009F1CA2C56
:20400000AA20F9F08F2D807F803469F080E28E0D8830B0F08F2D807E803229F4B1E0BE15E3
:2040200078F4992069F08091520282FF09C082E00E94910E809100028770CC24C3948111CD
:20404000C12CBF2CB2942FE0B222EBE0EB1508F4A8C0EB2DF0E0E857FF4C0C94E92E81E0A6
:204060000E94840E17CF82E013CF82E0F9CF9BE5E9169CE7F90659F1ACE5EA16ACE7FA0649
:20408000E1F0BAE5EB16BCE7FB0609F094CF81E01BC00E94B816EFEFF4E32CE0E150F040E1
:2040A0002040E1F700C000000E946E056FEF7FEF90E080E00E94FC2F28C28091520282FBBE
:2040C000882780F991E089270E946B1374CF80E0FBCFC7010E94D80CD82E7CCFFF2DFF70D0
:2040E000DF2E8F2D807F19F0D29490EFD922AA20B9F0DD2069F080E28E0D883010F0811000
:2041000009C080910B02D82AD0920B020E947D168E2D45C080910202D82AD0920202F6CF10
:204120008E2D0E94C419DD20E1F180E28E0D883010F0811004C08D2D0E94C70C06C0D09413
:2041400080910202D822D09202020E947D1629C02F2D2F70D22E8F2D807F803219F0D294F5
:2041600080EFD822882059F031E0831609F481C0AA2009F48DC0992009F44FC0C9CF80917B
:20418000520282FD46C0AA20F1F1DD2039F080910B02D82AD0920B020E947D1680E00E94AE
:2041A000231BAB2DA850BB0B149710F40E941606CC20A9F08091000280FD11C0F801158248
:2041C0008695869586950E94A80EC8010E94E41C809100028695869586950E94840E20E033
:2041E000D8014C9111965C91119712966C91129713967C91139714968C91149715969C91D5
:204200000E94BC10ADCC80E00E94C419DD2049F292CFAA20A1F0911004C08D2D0E94BA1950
:20422000C0CF81E09812BDCF809101029D2D9823D91609F4B6CFD82AD0920102B2CF9110C5
:20424000B0CF8D2D0E94B319909101028D2D892329F08D2D80958923809301028091D7019A
:204260009D2D982309F49DCFD094D822D092D70198CFAA2029F095E0991508F492CFCDCF52
:20428000A4E0A91508F48DCF8D2D0E94B31989CF9920D1F3B9E38B1218C1EFEFF7EE23E0AF
:2042A000E150F0402040E1F700C000000EC18F2D86958695837061F0813009F072CFC701ED
:2042C0009370A11002C080E090E00E94CC0569CFC7019370A11002C080E090E00E94F10547
:2042E00060CF6A2D8E2D0E94450D5BCF8F2D837091F5A11056CF4E2D429546954770440FDD
:20430000440F8E2D8F70042E01C0880F0A94EAF72E2D2071E4FE07C02FE030E001C0220FE1
:204320004A95EAF720953F2D369536953370323069F050F440910C02313029F0822B8423B7
:204340000E94420D2ECF842B822BFACF282B80910C028227F5CF8695AA2011F08F2D8170D8
:20436000882309F41ECF4E2D429546954770440F440F8E2D8F70042E01C0880F0A94EAF75B
:204380002E2D2071E4FE07C02FE030E001C0220F4A95EAF720953F2D3695369533703230FB
:2043A00069F050F440915002313029F0822B84230E945F0EF6CE842B822BFACF282B809113
:2043C00050028227F5CF3F2D3F70F32EAA2029F0832F0E94A80E8E2D21CF8E2D0E94B31921
:2043E0008F2D0E94840EDDCE8E2D92EF8916B1F1981570F0A0EF8A16D1F0B1EF8B1691F0E6
:20440000AA2009F45DC0911083CE8F2D8F712AC0E3EF8E1651F1F4EF8F12F2CF80915202BE
:2044200082FD2FC08F2D8F71AA20D9F21BC0AA2081F024E0291508F4B4CE2F2D2F7181E08A
:2044400090E001C0880F2A95EAF7909150028927AFCF35E0391508F4A4CEEFCF8F2D8F7108
:20446000A110BFCF0E94A80E9CCE80E0AA2009F49FCF9F2D9F7181E001C0880F9A95EAF701
:2044800097CFAA2091F08F2D8F71F82E0E94A80E8091520282FF07C0A8E0FA9EC00111246E
:2044A0008360809300028F2DDDCF81E00E94910EB1E0B91508F075CE82E00E94910E71CE7E
:2044C000992039F0893309F4E8CE8E2D0E94C41968CE8F2D8F7185CFB8E7EB16BCE7FB06C7
:2044E00009F4C1CDF3E0EF16FCE7FF0609F4DECD08F0BDCDE1143CE7F30609F4CACD81E041
:20450000E8168CE7F80609F056CD0E949D19E6E1EE16ECE7FE0609F0B4CC80910B028A7A7B
:2045200091E009F490E09093D60181119ECC89E20E94B3050E947D1603CBF6E1EF16FCE720
:20454000FF0609F494CC80910B028272F701E052F847E531F10508F022CDEC56FF4C0C945E
:20456000E92EF701E851FC47E730F10508F49ECB10922303C7019057839748F684E090E09B
:204580000E94C82F9093520280935102F701E150F047E232F10508F0ABCBE755FF4C0C94A6
:2045A000E92ECF93DF938091FF01807F09F04DC08091FE01882309F448C0E09120035091C5
:2045C000E702C091FA01D091F9016091FB017091FC0147E05E17C9F18E2F90E0E49FF00169
:2045E0001124E851FD4F2481222391F1489FF001499FF00D1124DF01A851BD4F11962C915A
:2046000011972C1325C02C912D1322C015962C91159721111DC012962D913C91261B370B16
:20462000283C3105A8F48091FF018F7080618093FF01E251FD4F80818F708061808389EF65
:2046400091E00E94E41C0E94CE0CDF91CF910895FC013196E770BECFA4E1B0E0E2E3F3E207
:204660000C94762E8C0186E0F801DE011F9601900D928A95E1F7F8018481E58099EFA92E8D
:2046800091E0B92E9091FD01911128C0882319F1EE20F1F0C8010E949910F82E8823C1F0DF
:2046A00087E0F801D50101900D928A95E1F78091FD01813031F48091F9019091FA010E94EF
:2046C0008C100E94D1228F2D6496ECE00C94922EC8010E94E41CFF24F394F5CFD080C1805D
:2046E00082809380F090FE012091FB013091FC01A401421B530BFF2009F4D9C0483C5105CC
:2047000008F092C08823F9F29091FA018091FF01282F207F09F056C0C91214C09091F901BD
:20472000D91210C0E11048C08F7080618093FF0189EF91E00E94E41C8091FF01F801868334
:20474000F12CC1CFE11038C06C2D8D2D0E94D9036C2D8D2D0E94D903E82E8111F1CFDF8654
:20476000C88A8F8598890E948C10292F22952F70243058F49F70223088F0992399F0F8010F
:204780009681907F79F4FE2C9ECF2A5F2F70223068F0C8010E94E41CEF2CF5CF992311F016
:2047A000882389F3805E883070F3F3CF803F58F3815F833070F7E7CF8091FF018160809358
:2047C000FF01BECFC91207C09091F901D91203C0EE2009F48DC0C8010E949910882309F4CD
:2047E00077CFEE2009F474CF8091FF01803288F02091F9013091FA01398728879B868A86E3
:204800009091FD019C871D868E87CE0108960E94E41C87E0F801A9EFB1E001900D928A95B7
:20482000E1F70E94D12257CF9091FF01292F207F51F489EF91E00E94E41C87E0F5011192FD
:204840008A95E9F77DCF882309F43DCF8091FA018C1110C08091F901D8120CC0E1100AC064
:204860009683C8010E94E41C87E0F50111928A95E9F729CFC8010E949910882309F428CF0A
:20488000EE2009F425CF8091FF01803210F22091F9013091FA013A8329839C828B82909138
:2048A000FD019D831E828F83CE010196B0CF483C5105D0F6882309F40ECFFE2CEE2009F4E9
:2048C00007CF8091FA018C1120C08091F901D8121CC08091FF0180FD0FC0982F907F61F024
:2048E0008683903F31F0982F907F905F8F70892B8683C8010E94E41C87E0F801A9EFB1E04A
:2049000001900D928A95E1F7DECEC8010E94991081117FCF8091FF0181608093FF01C80102
:204920000E94E41CD0CEABE1B0E0E9E9F4E20C947E2E4E8B5F8B688F798F8A8F9B8F192FDA
:204940009111109202021D8A86E0FE017696DE011F9601900D928A95E1F70A8D002341F051
:2049600021E04F85588969897A89C8010E94BC100B8B1C8B87E0FE013F96DE0118960190BF
:204980000D928A95E1F7CE0108960E942C2381110CC087E0FE013896DE01119601900D92DB
:2049A0008A95E1F78C8581110BC017E0809120039091E702891331C06B96E4E00C949A2EA3
:2049C0002091E70230E0C901019687709927409120034817190699F097E0929FD001939F6F
:2049E000B00D1124A851BD4FFE01319601900D929A95E1F78093E7020E94CE0CD6CF0E9404
:204A0000B8161092E7021092200387E0E9EFF1E0DF011D928A95E9F7C8CF819FC00111242D
:204A200088519D4F0E942C23882331F28091200390E001968770992780932003B7CFA6E0BE
:204A4000B0E0E5E2F5E20C947E2E0E949A058C0180910D0290910E028017910781F0198282
:204A60001A820E949A05682F49815A81792F80E090E00E94932410930E0200930D0226963B
:204A8000E4E00C949A2E1F920F920FB60F9211242F933F934F935F936F937F938F939F932D
:204AA000AF93BF93CF93DF93EF93FF93D091E900DF708091EC00C82FC17080FDC0E81092F5
:204AC000E9008091F000877F8093F00078940E94DF161092E9008091F00088608093F000C9
:204AE000CD2BCF70C093E900FF91EF91DF91CF91BF91AF919F918F917F916F915F914F91A3
:204B00003F912F910F900FBE0F901F9018951F920F920FB60F9211242F933F934F935F9349
:204B20006F937F938F939F93AF93BF93EF93FF938091E10082FF09C08091E20082FF05C0F0
:204B40008091E1008B7F8093E1008091DA0080FF24C08091D80080FF20C08091DA008E7FD7
:204B60008093DA008091D90080FF9DC080E189BD82E189BD09B400FEFDCF81E08093DD0258
:204B80008091D002811109C00E940F040E94B0048091E20084608093E2008091E10080FF8F
:204BA00017C08091E20080FF13C08091E2008E7F8093E2008091E20080618093E20080910A
:204BC000D80080628093D80019BC85E08093DD028091E10084FF2BC08091E20084FF27C047
:204BE00080E189BD82E189BD89B5982F917080FFFBCF8091D8008F7D8093D8008091E10044
:204C00008F7E8093E1008091E2008F7E8093E2008091E20081608093E2008091DE02882339
:204C200009F447C084E08093DD028091DD028091E10083FF27C08091E20083FF23C0809166
:204C4000E100877F8093E10082E08093DD021092DE028091E1008E7F8093E1008091E200BD
:204C60008E7F8093E2008091E20080618093E20042E060E080E00E947E048091F00088609A
:204C80008093F000FF91EF91BF91AF919F918F917F916F915F914F913F912F910F900FBE45
:204CA0000F901F90189519BC1092DD021092D00274CF8091E30087FD93E09093DD02B5CF7B
:204CC00078941F921FB61F9211248F939F93AF93BF938091CC029091CD02A091CE02B09163
:204CE000CF020196A11DB11D8093CC029093CD02A093CE02B093CF02BF91AF919F918F91F6
:204D00001F901FBE1F9018951F921FB61F9211248F939F93AF93BF938091CB02811113C014
:204D20008091CC029091CD02A091CE02B091CF024196A11DB11D8093CC029093CD02A09328
:204D4000CE02B093CF02BF91AF919F918F911F901FBE1F901895CDB7DEB7A6970FB6F89400
:204D6000DEBF0FBECDBF85B7806885BF85B7806885BF84B7877F84BF0FB6F894A89580914A
:204D80006000886180936000109260000FBE80E890E00FB6F89480936100909361000FBE9A
:204DA0008AE79AE09093CD018093CC010E940F040E94B0048091E20084608093E200789454
:204DC0008091DD028823A1F01091E9001F709091EC00892F817090FD80E8182B1092E90015
:204DE0008091E80083FD0E94DF161F701093E90082E084BD93E095BD9AEF97BD80936E00C2
:204E0000109240021092410210924202109243020E940710811102C00E94F70F8091D8005E
:204E200080618093D8002AE12A95F1F700C08091D900182F117080FD04C00E940F041092EA
:204E4000DD021093C30226982E988FE891E00197F1F700C0000093B1292F207496FB8827EF
:204E600080F98093C40280932401222309F476C010923F0186E0809340018091C30281112C
:204E80000E940E2D809124018091240195E0811190E090934F0285E0891B80934E0204E886
:204EA00011E099E8E92E91E0F92ED8018D918D018F3F11F00E947C0AE016F106B1F709E8CF
:204EC00011E0F80181918F018F3F11F00E947C0AF1E001391F07A9F78AE0E2E6F2E0DF019A
:204EE000282F1D922A95E9F7E4E4F2E0DF011D928A95E9F790E080E00E94C82F863E9E4FCB
:204F000021F40E940710811102C00E941E1A82E090E00E94BA2F8093B50284E090E00E94F8
:204F2000C82F90935202809351020E94D814EFEFF6E721E0E150F0402040E1F700C00000FA
:204F40000E94D8148091620280FF0CC06FEF7FEF90E080E00E94FC2F0E946E0586E080930C
:204F60003F0189CF83E090E00E94BA2F0E94420D809150020E943A0E80915302811184C0C1
:204F800088E090E00E94C22F4B015C0184E290E00E94BA2F282F30E040E050E060E070E055
:204FA00080E090E000E20E94052F282939294A295B29209348033093490340934A035093AF
:204FC0004B0360934C0370934D0380934E0390934F03309174023360309374022C7F09F06E
:204FE00043C025E020934803109249032FEF20934A0324EB20934B0310924C0325E030E089
:205000004FEF54EB60E00E94C71188E090E00E94C22F6B017C0184E290E00E94BA2F282F4D
:2050200030E040E050E060E070E080E090E00E94052FB22FA32FF42FE52F5B019701860175
:20504000BC29A12BFE29E32BB0934803A0934903F0934A03E0934B0360934C03B0924D03F8
:2050600080934E0390934F030E942C070E94D9068091480380FF05C060E0869586950E9449
:20508000F91281E0809353028091C302811102C00E94112D85E291E09093C8028093C70291
:2050A00018E1E12EF12C00E4B02E8CE6C82E82E0D82E8091DD0200E112E1853009F480C083
:2050C0000E94D814A4E58A2EA2E09A2EB2E66B2EB2E07B2ED301F40191918D9142E0EE35FD
:2050E000F40709F477C09817B9F33090C30210E022242394D3010D913D01F40141904F01EE
:20510000401629F14026A12C55245394842D8521B1F03320A1F0A9A21AA30E949A059CA328
:205120008BA32DA291E0802F852109F490E09EA349A15AA16BA17CA18DA10E949324A39432
:20514000550CF8E0AF12E2CFF401319700831F5F1A3081F60E94930A41C08091DD02843041
:2051600009F11092CB020FB6F894A895E09260000FBEB092600083B7817F846083BF83B75D
:20518000816083BF7894889583B78E7F83BF0FB6F894A8958091600088618093600010923D
:2051A00060000FBE8091DC02882351F00E94D814E2E6F2E081918111AEC3CE16DF06D1F719
:2051C0008091DD02853009F4C8CF0E94B8160E94160676CF981389CF0E941F2580917302B4
:2051E000882309F465C080917202E0914803E695E695E81BE0936E02823009F02CC1F0E05D
:20520000E25BFD4FE4910E2F10E0F6E66F2EFAE07F2E80916F02882361F010926F020E9430
:20522000AD0A90936D0280936C0210927102109270020E94AD0AE0916C02F0916D029C01B6
:205240002E1B3F0B2F3F3F4798F5209160022223B1F01092600220915E0230915F02821B6D
:20526000930B8F3F9F4758F4205D3A4830935F0220935E0280917402886080937402809052
:20528000700290907102E00FF11FF0936D02E0936C028CE692E0F30109958091700290911D
:2052A0007102892B29F4892819F081E08093600286E0EDEBF2E0DE01119601900D928A9535
:2052C000E1F78090BE02A090BF020091C0029090C1021091C2021092BF021092C002109231
:2052E000C1021092C202802F8A2991F08091BB029091BC020E947F05AC019091B60299238D
:2053000009F415C1809130018417150608F41DC1812F892909F445C08091B9029091BA02DB
:205320000E947F059C019091B702992309F417C321353105B0F19F3F19F09F5F9093B7024F
:20534000992059F00E944E069FEF19140CF491E0899F802D11248093C102112359F00E942A
:205360004E0691E011160CF09FEF899F802D11248093C2028091C102882399F09090C202EA
:20538000992079F00E94C506882309F416C18093C102892D0E94C506882309F410C180937A
:2053A000C2028091BE02881117C08091BF02882311F08A1111C02091C002222311F0021330
:2053C0000BC09091C202992311F0191305C03091C102332309F4B5C20E94270686E0FE01ED
:2053E0003196ADEBB2E001900D928A95E1F70E94160690916102891721F0809361020E948A
:205400008E058091DD02843009F053CE83E08093E9008091E80082FF4CCE8091E80090E0DF
:2054200085FF06C00E942E04882309F4CAC091E08091E8008B778093E800992309F439CEF5
:205440008981EFEFE80FE33108F0E2C0F0E0E553FF4C0C94E92E863059F4F0E0E55BFD4F56
:20546000E4910E2F10E0E6E56E2EEAE07E2ED1CE893061F4E695F0E0E85BFD4FE4910E2F74
:2054800010E071E0672E7AE0772EC3CE8F3061F4E695F0E0EB5BFD4FE4910E2F10E066E7C6
:2054A000662E69E0762EB5CE853159F4F0E0EE5BFD4FE4910E2F10E051EF652E58E0752E30
:2054C000A8CE08E210E02FE6622E28E0722E883109F49FCE833249F4E0E4F2E00591149149
:2054E00046E3642E48E0742E94CE04EF11E099EF692E97E0792E843209F48BCE853281F46C
:205500008E2F63E00E94A72EE92FF0E0E35CFD4FE4910E2F10E031EE632E30E1732E79CE56
:2055200000ED17E089E6682E85E0782E72CE20912F01FAE02F9F900111242417350708F079
:20554000E7CE9F5F9093B60202C09F3FD1F7AA2059F00E9487069FEF1A140CF491E0899FBE
:20556000802D11248093BF02002359F00E94870691E010160CF09FEF899F802D112480939C
:20558000C0028091BF02882309F4C2CE7090C002772009F4BDCE0E94C506882351F08093F2
:2055A000BF02872D0E94C506882329F08093C002AFCE81E0F4CF81E0F9CF81E0E8CE81E02E
:2055C000EECE00E210E0CE0101964C018091E80085FD0AC08091E8008B778093E8000E94AD
:2055E0002E04882399F323CF8091F100D4018D934D010150110951F71ACF1A828CE08B8359
:205600001BC08A81823009F4A1C128F4813061F08FEF898311C08330C1F08430C9F71B82A5
:205620001C821D821E8208C00E948E050E94EF2E6B837C838D839E8340E250E0BE016F5FD4
:205640007F4F82E00E94B40E34CD2B81822F90E0FE013496245E8A30910570F7DC01AE5902
:20566000BD4F3C91319301962813F5CFE5CF8A81823049F0853061F68091480380FF0EC098
:205680000E941D07D9CF6B817C818D819E810E94EF2E88E290E00E94DE2FCECF81608093AD
:2056A000480360E0869586950E94F912C5CF4C816B818A810E9420109827892798279E8303
:2056C0008D83BACF2D813E813227232732274C816B818A810E94990FAFCF0E94BF0FACCF51
:2056E0009A81923009F094CF8830E1F1893009F465C08B81823009F1A8F4813009F09CCFA3
:205700008C81B4EB8B9FC00111246FEF70E00E94C12E462F20E060914A03809149030E94CC
:20572000ED118ACF8330D1F0843009F085CF20E040914B036D818C81F2CF8C81882309F40D
:205740009FCF8091480381608093480360E0869586950E94F91260E08C81A6CF8C8180933B
:205760004C036ACF8B818230E1F078F4813009F063CF80914B03EFEF8E9FC001112464EB1B
:2057800070E00E94C12E6C8357CF8330A1F0843009F052CF809149038C8380914A038D8327
:2057A0004BCF8091480380FF04C0869586958C8343CF80E0FCCF80914C03F9CF209148038A
:2057C0003091490340914A0350914B0360914C0370914D0380914E0390914F030E94C7118F
:2057E0002BCF80E18A8328CF81E08A8387E507CF0A811B81102701271027CE0101963C013A
:205800008C80DC01A80DB11D4D01C80187559D4F8614970409F410CF0735B1E01B0750F4F9
:205820000E94BA2FF30184830F5F1F4FBFEF6B1A7B0AEBCFD30114961C92F6CF0A811B817C
:20584000102701271027FE0131963F018C80800E912E911CC80187559D4F8016910609F4EB
:20586000EBCE0735F1E01F0728F4D30114966C910E94DE2FBFEF6B1A7B0A0F5F1F4FEACFA9
:205880000E94890FD9CE84E0ADCF0A811B81102701271027FE0131963F018C80CF01880D13
:2058A000911D4C01C80189968614970409F4C4CE0038A2E01A0750F40E94BA2FF30184839C
:2058C0000F5F1F4FBFEF6B1A7B0AECCFD30114961C92F6CF0A811B81102701271027FE01CC
:2058E00031963F018C80800E912E911CC80189968016910609F4A0CE0038F2E01F0728F4CF
:20590000D30114966C910E94DE2FBFEF6B1A7B0A0F5F1F4FEBCF09BD19BD09B400FEFDCFEC
:205920008091D8008F7D8093D8008091E00082608093E0008091E00081FDFCCF0E94B81617
:205940003FCC822B892B09F449CD46CD88E290E00E94BA2F1B821C821D828E836DCE2B30CF
:20596000310508F0EACC1DCD8EE14A9B02C08150E1F74A9BFECF08955A9880E28A95F1F7F0
:205980005A9A0895FC013BE03A95F1F798E020E080E031E040E14A95F1F7880F4A9B02C098
:2059A0008160232742E04A95F1F7000040E14A95F1F7915079F790E19A95F1F799B132E0B6
:2059C0003A95F1F7000040E14A95F1F792FB992790F992272081920F90830895A1E0B0E096
:2059E000E4EFFCE20C947C2E19828C017C01E60EF11C0E151F0541F481E09981911180E00D
:205A00002196E6E00C94982E0E94B42CCE0101960E94C22CF80181938F01EBCF529A5A9AF4
:205A2000089552985A9AEA9AE9E6F0E080818F7C808308956150770B91E001C0990F6A9510
:205A4000EAF720E031E0911108C0222391F05A9A80E28A95F1F75A980895492F482339F02C
:205A60005A9A232740E24A95F1F79695ECCF5A98F9CF5A98EDCFFF920F931F93CF93DF93F8
:205A8000EC018C01060F111DC017D10729F4CDB7DEB7E5E00C94992EF9900E94BC2C68E0DD
:205AA0008F2D0E941A2DF0CF1F920F920FB60F9211240F931F932F933F934F935F936F93D7
:205AC0007F938F939F93AF93BF93EF93FF93CF93DF930F92CDB7DEB719820E94B42CCE013E
:205AE00001960E94C22C082F069506950695282F22952570902F9570290F922F9370269559
:205B00002695920F982797708981982B09F05CC0053008F059C080E18A95F1F75A9A529AF3
:205B200082E08A95F1F700C05A9888E0089F80011124D801AC5FBE4F1696ED91FC9117972F
:205B40003097A9F0609182017091830114962D913C911597260F371F11968D919C911297E5
:205B6000680F791F13964C9113978C910995F801EC5FFE4F6381662351F0209182013091F7
:205B8000830184819581820F931F0E943B2D0E94BC2C80E18A95F1F75A9852985A9A80E1F6
:205BA0008A95F1F7F801EC5FFE4F6081662351F0209182013091830181819281820F931FD1
:205BC0000E94EE2C0E94B42C0F90DF91CF91FF91EF91BF91AF919F918F917F916F915F9128
:205BE0004F913F912F911F910F910F900FBE0F901F9018950F931F93CF93DF93EC010597CD
:205C00000CF04CC0F894529A5A9885E08A95F1F700009C2F969595708C2F8570980F892F9C
:205C200083709695969523E0CC0FDD1F2A95E1F7980F8E01092B0E94BC2C00C068E0802FFF
:205C40000E941A2D80E18A95F1F752985A9A4A9B1EC087E090E04A991CC0FE01EC5FFE4F25
:205C600063816623F9F0209182013091830184819581820F931F0E94EE2C811113C0529AEA
:205C80005A9A7894DF91CF911F910F91089500C0DECF019729F4529A5A9A789480E0F2CF18
:205CA00000C0D9CF0E94B42C80E28A95F1F75A98529A80E18A95F1F7CC5FDE4F6881662381
:205CC00051F0209182013091830189819A81820F931F0E943B2D0E94BC2C789481E0D2CF00
:205CE0002F923F924F925F926F927F928F929F92AF92BF92CF92DF92EF92FF920F931F9312
:205D0000CF93DF93CDB7DEB7CA1BDB0B0FB6F894DEBF0FBECDBF09942A88398848885F84C1
:205D20006E847D848C849B84AA84B984C884DF80EE80FD800C811B81AA81B981CE0FD11DE7
:205D40000FB6F894DEBF0FBECDBFED010895991B79E004C0991F961708F0961B881F7A95DC
:205D6000C9F78095089587FB082E062687FD819567FD61950E94A72E0EF4919507FC819521
:205D80000895AA1BBB1B51E107C0AA1FBB1FA617B70710F0A61BB70B881F991F5A95A9F743
:205DA00080959095BC01CD01089597FB072E16F4009407D077FD09D00E94C12E07FC05D08F
:205DC0003EF4909581959F4F0895709561957F4F0895EE0FFF1F0590F491E02D09946927F6
:205DE0009627692778278727782708950E946630332312F48A1B9B0B0C94002F0E946630E7
:205E0000B7FF0895821B930B0895002E083090F0982F872F762F652F542F432F322F22271C
:205E20000850F4CF220F331F441F551F661F771F881F991F0A95B2F7002D089597FD109429
:205E4000002E083098F00850232F342F452F562F672F782F892F912DF4CF159497958795E7
:205E60007795679557954795379527950A95AAF71124002D08958F929F92AF92BF92CF9246
:205E8000DF92EF92FF92CF93DF93EC01688179818A819B81611571058105910521F464E251
:205EA00079ED8BE597E02DE133EF41E050E00E94123049015A019B01AC01A7EAB1E40E947A
:205EC00031306B017C01ACEEB4EFA50194010E943F30DC01CB018C0D9D1DAE1DBF1DB7FF96
:205EE00003C00197A109B04888839983AA83BB839F77DF91CF91FF90EF90DF90CF90BF9002
:205F0000AF909F908F9008950E943B2F089580E091E00E943B2F0895B0E0A0E08093000110
:205F200090930101A0930201B09303010895FC014150504030F001900616D1F73197CF01D7
:205F40000895882799270895FB01DC0104C08D910190801921F441505040C8F7881B990B77
:205F60000895FB01DC0102C001900D9241505040D8F70895F999FECF92BD81BDF89A9927EE
:205F800080B50895A6E1B0E044E050E00C940430A8E1B0E042E050E00C940430DC01A40F21
:205FA000B51F4150504048F0CB01840F951F2E910E94DF2F41505040D0F70895262FF999C6
:205FC000FECF92BD81BDF89A019700B4021639F01FBA20BD0FB6F894FA9AF99A0FBE0895B0
:205FE0000396272F0E94DF2F0E94DE2F252F0E94DF2F242F0C94DF2F0196272F0E94DF2FB1
:206000000C94DE2FDC01CB01FC01F999FECF06C0F2BDE1BDF89A319600B40D9241505040EE
:20602000B8F70895052E97FB1EF400940E94293057FD07D00E94443007FC03D04EF40C94B5
:20604000293050954095309521953F4F4F4F5F4F089590958095709561957F4F8F4F9F4F6C
:2060600008950E946630A59F900DB49F900DA49F800D911D11240895B7FF0C9431300E94D1
:206080003130821B930B0895A1E21A2EAA1BBB1BFD010DC0AA1FBB1FEE1FFF1FA217B30755
:2060A000E407F50720F0A21BB30BE40BF50B661F771F881F991F1A9469F7609570958095E8
:2060C00090959B01AC01BD01CF010895A29FB001B39FC001A39F700D811D1124911DB29F91
:2060E000700D811D1124911D0895F894FFCFC017E8178B19E8178B191B183C188B193A1910
:206100004719651E691E5A1E611E6D1E711E751E6E206E20A820A82057217121D120D120D9
:206120007621E321F421F421501F7B1F821F871F8C1F911F961F9B1FA01FA51FAA1FAF1F66
:20614000B21FB71FBA1FBD1FC01FC31FC61FC91FCC1FB21E271FBA1E841E881EBE1E8C1EAE
:20616000C21ECE1E981E201F9C1ED21EA01ED61EFE1EA41EDA1E051FAA1EE01EE81E901E8E
:20618000C61E941ECA1EAE1EE41EF41E0E1F1E1F7E1EB61E2E1FFD2A012B372B572B622BB6
:2061A0006D2B702B702B702B082B082BF12BF42BF82B1E2C402C432C452C6A2C0100000085
:2061C0000000000100000000000000050100000004060000000000000B0A00000000000099
:2061E000016B05FD0E6A05F60EEF0E011401191A1B1C1D1E1F202122010201000C000C0C4E
:206200001E0A280801818283E200E900EA00B500B600B700CD008301CC008A0192019401F8
:206220002102230224022502260227022A02B300B4006F0070009F01CB019F02A00226022F
:20624000946697C634F4F5F6F7313332350001020202020606060909090909090F0F0F0F85
:206260000F0F1515151819191919191919191919232425252525252544227B49012701AC8B
:2062800000E9060207220700FFFFFFFFFFFFFFFFFFFFFFFFFFFFFFFFFFFFFFFFFFFFFFFFF5
:2062A000FFFFFFFFFFFFFFFFFFFFFFFFFFFFFFFFFFFFFFFFFFFFFFFFFFFFFFFFFFFFFFFFFE
:2062C000FFFFFFFFFFFFFFFFFFFFFFFFFFFFFFFFFFFFFFFFFFFFFFFFFFFFFFFFFFFFFFFFDE
:2062E000FFFFFFFFFFFFFFFFFFFFFFFFFFFFFFFFFFFFFFFFFFFFFFFFFFFFFFFFFFFFFFFFBE
:20630000FFFFFFFFFFFFFFFFFFFFFFFFFFFFFFFFFFFFFFFFFFFFFFFFFFFFFFFFFFFFFFFF9D
:2070000055C000006EC000006CC000006AC0000068C0000066C0000064C0000062C0000043
:2070200060C000005EC00000FCC400005AC0000058C0000056C0000054C0000052C00000E4
:2070400050C000005DC000004CC000004AC0000048C0000046C0000044C0000042C00000D9
:2070600040C000003EC000003CC000003AC0000038C0000036C0000034C0000032C0000048
:2070800030C000002EC000002CC000002AC0000028C0000026C0000024C0000022C00000A8
:2070A00020C000001EC000001CC0000011241FBECFEFDAE0DEBFCDBF11E0A0E0B1E0E6E4B7
:2070C000FFE702C005900D92A43BB107D9F711E0A4EBB1E001C01D92AD3CB107E1F74FD351
:2070E00030C78ECFF89410926F001092810081E085BF15BE47985D9A289A0C94000008952F
:207100001F920F920FB60F9211242F938F939F93EF93FF9310928500109284008091B40145
:207120009091B501009741F001979093B5018093B401892B09F45D9A8091B6019091B7012E
:20714000009741F001979093B7018093B601892B09F4289A8091BA019091BB010196909354
:20716000BB018093BA01E0E0F0E0859194918F5F9F4F49F08091B8019091B9010196909346
:20718000B9018093B801FF91EF919F918F912F910F900FBE0F901F90189584E08093E90082
:2071A0000DC08091E8008B778093E80003C08EB3882351F08091E80082FFF9CF8091E800E1
:2071C00085FFEFCF8091F1000895982F83E08093E9008091E80085FD0DC08091E8008E7762
:2071E0008093E80003C08EB3882369F08091E80080FFF9CF9093F1005D9884E690E0909346
:20720000B5018093B40108954F925F926F927F928F929F92AF92BF92CF92DF92EF92FF92A7
:207220000F931F93CF93DF9384E08093E9008091E80082FF57C2289884E690E09093B701BE
:207240008093B601AADF182F853481F48CE49DE19093B9018093B80107B600FCFDCFF999B8
:20726000FECF81E180935700E89503C0843519F494DF8DE00DC28C34E1F38035D1F38437F8
:2072800021F484E4A2DF80E003C2813611F489E5FFC18134B1F481DF182F7FDF90E0880F7B
:2072A000991FAA2797FDA095BA2F312F330F20E0442737FD4095542F822B932BA42BB52BE0
:2072C000B8C1803711F483E5E3C1833549F4C0E0D1E089917ADF21E0C730D207D1F7D9C181
:2072E000863521F481E371DF80E3D2C1833731F487E86BDF85E969DF8EE1CAC18536B9F464
:20730000E0E0F0E093E085E090935700E89507B600FCFDCF80935700E89507B600FCFDCF1D
:20732000E058FF4FA0E7E030FA0771F7A2CF823739F4E1E0F0E089E0809357008491A8C18E
:20734000863439F4E0E0F0E089E08093570084919FC18E3439F4E3E0F0E089E08093570019
:20736000849196C1813539F4E2E0F0E089E08093570084918DC1823631F489E526DF80E046
:2073800024DF80E885C1823419F0873609F0E5C01092B9011092B80100DF082FFEDEF82E53
:2073A000FCDE682E8554823008F071C1902F80E0CF2DD0E0C82BD92B10926F00173609F08F
:2073C0004BC081E180935700E895DD24CC24C3943FC0E090BD01F090BE010091BF011091B3
:2073E000C001B6E46B16D9F4ED2DF0E0EE29FF29E4918E2FEADEDD2081F082E090E0A0E001
:20740000B0E0E80EF91E0A1F1B1FE092BD01F092BE010093BF011093C001DC2418C0D80193
:20742000C701B695A7959795879575D5CEDE82E090E0A0E0B0E0E80EF91E0A1F1B1FE092FB
:20744000BD01F092BE010093BF011093C0012197209709F0BECF7DC08090BD019090BE0197
:20746000A090BF01B090C00196E4691609F05DC083E0F40180935700E89507B600FCFDCF48
:2074800054C0F6E46F1661F5772031F1E090BD01F090BE010091BF011091C0017EDED82EE8
:2074A000CC24852D90E08C299D29F7010C0140925700E895112482E090E0A0E0B0E0E80E87
:2074C000F91E0A1F1B1FE092BD01F092BE010093BF011093C00102C060DE582E742423C009
:2074E000E090BD01F090BE010091BF011091C00116950795F794E79450DE682FC70113D5AA
:207500008091BD019091BE01A091BF01B091C0010296A11DB11D8093BD019093BE01A093BF
:20752000BF01B093C001219704C05524772444244394209709F0A5CF96E4691641F485E001
:20754000F40180935700E89507B600FCFDCF8DE03CDE82E080936F009CC0833471F4009156
:20756000BD011091BE0119DE90E021E0F8010C0120935700E89511247CCE833619F5E09042
:20758000BD01F090BE010091BF011091C00105DEF701E16090E021E00C0120935700E8951A
:2075A000112482E090E0A0E0B0E0E80EF91E0A1F1B1FE092BD01F092BE010093BF011093DD
:2075C000C00157CE8D3661F4E091BD01F091BE0185E080935700E89507B600FCFDCF49CE56
:2075E000823551F4E091BD01F091BE0105911491812FEBDD802F4CC0843421F5E090BD01B6
:20760000F090BE010091BF011091C00116950795F794E794C2DD682FC70185D48091BD0105
